{"abi":[{"type":"constructor","inputs":[],"stateMutability":"nonpayable"},{"type":"function","name":"deleteMessage","inputs":[{"name":"_id","type":"uint256","internalType":"uint256"}],"outputs":[],"stateMutability":"nonpayable"},{"type":"function","name":"editMessage","inputs":[{"name":"_id","type":"uint256","internalType":"uint256"},{"name":"_title","type":"string","internalType":"string"},{"name":"_text","type":"string","internalType":"string"}],"outputs":[],"stateMutability":"nonpayable"},{"type":"function","name":"messageCount","inputs":[],"outputs":[{"name":"","type":"uint256","internalType":"uint256"}],"stateMutability":"view"},{"type":"function","name":"messages","inputs":[{"name":"","type":"uint256","internalType":"uint256"}],"outputs":[{"name":"author","type":"address","internalType":"address"},{"name":"title","type":"string","internalType":"string"},{"name":"text","type":"string","internalType":"string"}],"stateMutability":"view"},{"type":"function","name":"owner","inputs":[],"outputs":[{"name":"","type":"address","internalType":"address"}],"stateMutability":"view"},{"type":"function","name":"readLatestMessage","inputs":[],"outputs":[{"name":"","type":"string","internalType":"string"},{"name":"","type":"string","internalType":"string"}],"stateMutability":"view"},{"type":"function","name":"readMessage","inputs":[{"name":"_id","type":"uint256","internalType":"uint256"}],"outputs":[{"name":"","type":"string","internalType":"string"},{"name":"","type":"string","internalType":"string"}],"stateMutability":"view"},{"type":"function","name":"writeMessage","inputs":[{"name":"_title","type":"string","internalType":"string"},{"name":"_text","type":"string","internalType":"string"}],"outputs":[],"stateMutability":"nonpayable"},{"type":"event","name":"MessageEdited","inputs":[{"name":"id","type":"uint256","indexed":false,"internalType":"uint256"},{"name":"editor","type":"address","indexed":true,"internalType":"address"}],"anonymous":false},{"type":"event","name":"MessageWritten","inputs":[{"name":"id","type":"uint256","indexed":false,"internalType":"uint256"},{"name":"author","type":"address","indexed":true,"internalType":"address"}],"anonymous":false}],"bytecode":{"object":"0x60806040525f6002553480156012575f5ffd5b503360015f6101000a81548173ffffffffffffffffffffffffffffffffffffffff021916908373ffffffffffffffffffffffffffffffffffffffff160217905550611467806100605f395ff3fe608060405234801561000f575f5ffd5b5060043610610086575f3560e01c8063a7d2705611610059578063a7d2705614610114578063b888690a14610145578063ceb2736c14610161578063f17811cb1461018057610086565b80630d02549b1461008a5780630d80fefd146100a65780633dbcc8d1146100d85780638da5cb5b146100f6575b5f5ffd5b6100a4600480360381019061009f9190610c9d565b61019c565b005b6100c060048036038101906100bb9190610d25565b61032b565b6040516100cf93929190610def565b60405180910390f35b6100e061047b565b6040516100ed9190610e41565b60405180910390f35b6100fe610481565b60405161010b9190610e5a565b60405180910390f35b61012e60048036038101906101299190610d25565b6104a6565b60405161013c929190610e73565b60405180910390f35b61015f600480360381019061015a9190610d25565b61064f565b005b61016961074c565b604051610177929190610e73565b60405180910390f35b61019a60048036038101906101959190610ea8565b610946565b005b81815f825111806101ad57505f8151115b6101ec576040517f08c379a00000000000000000000000000000000000000000000000000000000081526004016101e390610f68565b60405180910390fd5b5f5f5f8781526020019081526020015f209050805f015f9054906101000a900473ffffffffffffffffffffffffffffffffffffffff1673ffffffffffffffffffffffffffffffffffffffff163373ffffffffffffffffffffffffffffffffffffffff161461028f576040517f08c379a000000000000000000000000000000000000000000000000000000000815260040161028690610fd0565b60405180910390fd5b5f855111156102ab57848160010190816102a991906111eb565b505b5f845111156102c757838160020190816102c591906111eb565b505b3373ffffffffffffffffffffffffffffffffffffffff167f03716f1106e88794e473447c18200b793c92ae0ae7e97ae2cc443baae8d1744b600160025461030e91906112e7565b60405161031b9190610e41565b60405180910390a2505050505050565b5f602052805f5260405f205f91509050805f015f9054906101000a900473ffffffffffffffffffffffffffffffffffffffff169080600101805461036e9061101b565b80601f016020809104026020016040519081016040528092919081815260200182805461039a9061101b565b80156103e55780601f106103bc576101008083540402835291602001916103e5565b820191905f5260205f20905b8154815290600101906020018083116103c857829003601f168201915b5050505050908060020180546103fa9061101b565b80601f01602080910402602001604051908101604052809291908181526020018280546104269061101b565b80156104715780601f1061044857610100808354040283529160200191610471565b820191905f5260205f20905b81548152906001019060200180831161045457829003601f168201915b5050505050905083565b60025481565b60015f9054906101000a900473ffffffffffffffffffffffffffffffffffffffff1681565b6060805f5f5f8581526020019081526020015f206040518060600160405290815f82015f9054906101000a900473ffffffffffffffffffffffffffffffffffffffff1673ffffffffffffffffffffffffffffffffffffffff1673ffffffffffffffffffffffffffffffffffffffff1681526020016001820180546105299061101b565b80601f01602080910402602001604051908101604052809291908181526020018280546105559061101b565b80156105a05780601f10610577576101008083540402835291602001916105a0565b820191905f5260205f20905b81548152906001019060200180831161058357829003601f168201915b505050505081526020016002820180546105b99061101b565b80601f01602080910402602001604051908101604052809291908181526020018280546105e59061101b565b80156106305780601f1061060757610100808354040283529160200191610630565b820191905f5260205f20905b81548152906001019060200180831161061357829003601f168201915b5050505050815250509050806020015181604001519250925050915091565b5f5f5f8381526020019081526020015f209050805f015f9054906101000a900473ffffffffffffffffffffffffffffffffffffffff1673ffffffffffffffffffffffffffffffffffffffff163373ffffffffffffffffffffffffffffffffffffffff16146106f2576040517f08c379a00000000000000000000000000000000000000000000000000000000081526004016106e990611364565b60405180910390fd5b5f5f8381526020019081526020015f205f5f82015f6101000a81549073ffffffffffffffffffffffffffffffffffffffff0219169055600182015f6107379190610ac5565b600282015f6107469190610ac5565b50505050565b6060805f60025411610793576040517f08c379a000000000000000000000000000000000000000000000000000000000815260040161078a906113cc565b60405180910390fd5b5f5f5f60016002546107a591906112e7565b81526020019081526020015f206040518060600160405290815f82015f9054906101000a900473ffffffffffffffffffffffffffffffffffffffff1673ffffffffffffffffffffffffffffffffffffffff1673ffffffffffffffffffffffffffffffffffffffff1681526020016001820180546108219061101b565b80601f016020809104026020016040519081016040528092919081815260200182805461084d9061101b565b80156108985780601f1061086f57610100808354040283529160200191610898565b820191905f5260205f20905b81548152906001019060200180831161087b57829003601f168201915b505050505081526020016002820180546108b19061101b565b80601f01602080910402602001604051908101604052809291908181526020018280546108dd9061101b565b80156109285780601f106108ff57610100808354040283529160200191610928565b820191905f5260205f20905b81548152906001019060200180831161090b57829003601f168201915b50505050508152505090508060200151816040015192509250509091565b81815f8251118061095757505f8151115b610996576040517f08c379a000000000000000000000000000000000000000000000000000000000815260040161098d90610f68565b60405180910390fd5b60405180606001604052803373ffffffffffffffffffffffffffffffffffffffff168152602001858152602001848152505f5f60025481526020019081526020015f205f820151815f015f6101000a81548173ffffffffffffffffffffffffffffffffffffffff021916908373ffffffffffffffffffffffffffffffffffffffff1602179055506020820151816001019081610a3291906111eb565b506040820151816002019081610a4891906111eb565b5090505060025f815480929190610a5e906113ea565b91905055503373ffffffffffffffffffffffffffffffffffffffff167fd25066e3c7b9af1820519a601a36cb19edba641ae210088783fb2b69707dd1306001600254610aaa91906112e7565b604051610ab79190610e41565b60405180910390a250505050565b508054610ad19061101b565b5f825580601f10610ae25750610aff565b601f0160209004905f5260205f2090810190610afe9190610b02565b5b50565b5b80821115610b19575f815f905550600101610b03565b5090565b5f604051905090565b5f5ffd5b5f5ffd5b5f819050919050565b610b4081610b2e565b8114610b4a575f5ffd5b50565b5f81359050610b5b81610b37565b92915050565b5f5ffd5b5f5ffd5b5f601f19601f8301169050919050565b7f4e487b71000000000000000000000000000000000000000000000000000000005f52604160045260245ffd5b610baf82610b69565b810181811067ffffffffffffffff82111715610bce57610bcd610b79565b5b80604052505050565b5f610be0610b1d565b9050610bec8282610ba6565b919050565b5f67ffffffffffffffff821115610c0b57610c0a610b79565b5b610c1482610b69565b9050602081019050919050565b828183375f83830152505050565b5f610c41610c3c84610bf1565b610bd7565b905082815260208101848484011115610c5d57610c5c610b65565b5b610c68848285610c21565b509392505050565b5f82601f830112610c8457610c83610b61565b5b8135610c94848260208601610c2f565b91505092915050565b5f5f5f60608486031215610cb457610cb3610b26565b5b5f610cc186828701610b4d565b935050602084013567ffffffffffffffff811115610ce257610ce1610b2a565b5b610cee86828701610c70565b925050604084013567ffffffffffffffff811115610d0f57610d0e610b2a565b5b610d1b86828701610c70565b9150509250925092565b5f60208284031215610d3a57610d39610b26565b5b5f610d4784828501610b4d565b91505092915050565b5f73ffffffffffffffffffffffffffffffffffffffff82169050919050565b5f610d7982610d50565b9050919050565b610d8981610d6f565b82525050565b5f81519050919050565b5f82825260208201905092915050565b8281835e5f83830152505050565b5f610dc182610d8f565b610dcb8185610d99565b9350610ddb818560208601610da9565b610de481610b69565b840191505092915050565b5f606082019050610e025f830186610d80565b8181036020830152610e148185610db7565b90508181036040830152610e288184610db7565b9050949350505050565b610e3b81610b2e565b82525050565b5f602082019050610e545f830184610e32565b92915050565b5f602082019050610e6d5f830184610d80565b92915050565b5f6040820190508181035f830152610e8b8185610db7565b90508181036020830152610e9f8184610db7565b90509392505050565b5f5f60408385031215610ebe57610ebd610b26565b5b5f83013567ffffffffffffffff811115610edb57610eda610b2a565b5b610ee785828601610c70565b925050602083013567ffffffffffffffff811115610f0857610f07610b2a565b5b610f1485828601610c70565b9150509250929050565b7f426f7468207469746c6520616e6420746578742061726520656d7074790000005f82015250565b5f610f52601d83610d99565b9150610f5d82610f1e565b602082019050919050565b5f6020820190508181035f830152610f7f81610f46565b9050919050565b7f4f6e6c7920617574686f722063616e20656469740000000000000000000000005f82015250565b5f610fba601483610d99565b9150610fc582610f86565b602082019050919050565b5f6020820190508181035f830152610fe781610fae565b9050919050565b7f4e487b71000000000000000000000000000000000000000000000000000000005f52602260045260245ffd5b5f600282049050600182168061103257607f821691505b60208210810361104557611044610fee565b5b50919050565b5f819050815f5260205f209050919050565b5f6020601f8301049050919050565b5f82821b905092915050565b5f600883026110a77fffffffffffffffffffffffffffffffffffffffffffffffffffffffffffffffff8261106c565b6110b1868361106c565b95508019841693508086168417925050509392505050565b5f819050919050565b5f6110ec6110e76110e284610b2e565b6110c9565b610b2e565b9050919050565b5f819050919050565b611105836110d2565b611119611111826110f3565b848454611078565b825550505050565b5f5f905090565b611130611121565b61113b8184846110fc565b505050565b5b8181101561115e576111535f82611128565b600181019050611141565b5050565b601f8211156111a3576111748161104b565b61117d8461105d565b8101602085101561118c578190505b6111a06111988561105d565b830182611140565b50505b505050565b5f82821c905092915050565b5f6111c35f19846008026111a8565b1980831691505092915050565b5f6111db83836111b4565b9150826002028217905092915050565b6111f482610d8f565b67ffffffffffffffff81111561120d5761120c610b79565b5b611217825461101b565b611222828285611162565b5f60209050601f831160018114611253575f8415611241578287015190505b61124b85826111d0565b8655506112b2565b601f1984166112618661104b565b5f5b8281101561128857848901518255600182019150602085019450602081019050611263565b868310156112a557848901516112a1601f8916826111b4565b8355505b6001600288020188555050505b505050505050565b7f4e487b71000000000000000000000000000000000000000000000000000000005f52601160045260245ffd5b5f6112f182610b2e565b91506112fc83610b2e565b9250828203905081811115611314576113136112ba565b5b92915050565b7f4f6e6c7920617574686f722063616e2064656c657465000000000000000000005f82015250565b5f61134e601683610d99565b91506113598261131a565b602082019050919050565b5f6020820190508181035f83015261137b81611342565b9050919050565b7f4e6f206d65737361676573207965742e000000000000000000000000000000005f82015250565b5f6113b6601083610d99565b91506113c182611382565b602082019050919050565b5f6020820190508181035f8301526113e3816113aa565b9050919050565b5f6113f482610b2e565b91507fffffffffffffffffffffffffffffffffffffffffffffffffffffffffffffffff8203611426576114256112ba565b5b60018201905091905056fea26469706673582212202c0a18c62a881b2494533c3a3903c6f5445da1ad2497fecaef9d672890e72ee564736f6c634300081e0033","linkReferences":{}},"methodIdentifiers":{"deleteMessage(uint256)":"b888690a","editMessage(uint256,string,string)":"0d02549b","messageCount()":"3dbcc8d1","messages(uint256)":"0d80fefd","owner()":"8da5cb5b","readLatestMessage()":"ceb2736c","readMessage(uint256)":"a7d27056","writeMessage(string,string)":"f17811cb"},"id":0}